S017000041697220436F6E646974696F6E65722E7372656353
S11300000C942A000C9447000C9447000C9447006D
S11300100C94210B0C9447000C9447000C94FA0A9E
S11300200C9447000C9447000C94D30A0C9447009A
S11300300C9447000C9447000C9447000C94470020
S11300400C9447000C9447000C9447000C94470010
S11300500C94470011241FBECFE5D8E0DEBFCDBF0E
S113006010E0A0E6B0E0E4EAFBE102C005900D92E6
S1130070A83AB107D9F720E0A8EAB0E001C01D9280
S1130080A73CB207E1F70E94B4050C94D00D0C9480
S113009000000E9418040E94E60180E00E943505D9
S11300A04091600050916100609162007091630022
S11300B0809164000E9459051092BF0089E18093E9
S11300C0BC001092BE001092C0001092BD001092AD
S11300D0BB000895FB018A3020F4805D8083118287
S11300E008959DEC899F912D11249695969596954A
S11300F020E3290F2083990F292F220F220F920F1B
S1130100891B805D818312820895FC019181911184
S113011003C0808180530895208130E02053310949
S1130120220F822F880F880F820F890F8053089522
S113013080E00E940F028093BB008823E1F190EDE0
S1130140980F9A3010F591E09093BF009091C00001
S11301509230D8F4292F30E0F901E855FF4F80831D
S1130160F901E755FF4F10829F5F9093C0000E94F2
S1130170310543E850E060E080E00E94260548EA4B
S113018050E060E081E00E9426058091BB008D3341
S1130190A1F488EA90E00E9485008093BD0010924B
S11301A0C000E8EAF0E01082118212828F508031A0
S11301B030F080E008958FEF08958FEF089581E087
S11301C0089580E00E943D050895681770F420E5C5
S11301D040916000509161006091620070916300F1
S11301E0809164000E948E05089520E04091600093
S11301F0509161006091620070916300809164008D
S11302000E948E050895CF93DF9300D01F92CDB73F
S1130210DEB7BE016F5F7F4F0E946A0040E950E085
S113022060E080E00E942605AE014F5F5F4F60E012
S113023081E00E9426050F900F900F90DF91CF91DF
S11302400895CF930E94E100C82F0E9498008F3F29
S1130250A1F0813039F48091BD008093BC001092EC
S1130260BF000BC089E18093BC000E9431054DE9B9
S113027050E060E080E00E9426058091BF0081117B
S113028008C08C2F0E9403016091BC008C2F0E9437
S1130290E500CF910895813029F138F0823009F4D6
S11302A03EC0833009F456C06FC064E082E00E940F
S11302B04907882309F46AC065E082E00E9449077F
S11302C0882309F465C066E082E00E944907882318
S11302D009F460C067E082E00E94490781115CC0B4
S11302E08FE2089564E082E00E944907882309F4BC
S11302F055C065E082E00E944907882309F450C094
S113030066E082E00E944907882309F44BC067E055
S113031082E00E944907811147C08AE2089564E09F
S113032082E00E944907882309F440C065E082E026
S11303300E9449078823E1F166E082E00E944907B0
S11303408823C1F167E082E00E944907811134C02B
S11303508DE2089564E082E00E944907882371F1E8
S113036065E082E00E944907882351F166E082E05B
S11303700E944907882331F167E082E00E9449071F
S1130380811122C08BE2089580E0089587E30895E7
S113039088E3089589E3089580E0089584E3089547
S11303A085E3089586E3089580E0089581E3089540
S11303B082E3089583E3089580E008958FE6089525
S11303C080E308958DE3089580E0089541E060E0BE
S11303D082E00E94DB0541E061E082E00E94DB05EF
S11303E041E062E082E00E94DB0541E063E082E0FC
S11303F00E94DB0542E064E082E00E94DB0542E00B
S113040065E082E00E94DB0542E066E082E00E9453
S1130410DB0542E067E082E00E94DB0508950F936C
S11304201F93CF93DF93811103C00BEA12E002C044
S11304300BE411E0C0E0D0E074C02097D9F440E0B0
S113044060E082E00E94A80641E061E082E00E9450
S1130450A80641E062E082E00E94A80641E063E071
S113046082E00E94A8068C2FF8010995882309F4DC
S113047057C05CC0C130D105D1F441E060E082E0F6
S11304800E94A80640E061E082E00E94A80641E0E4
S113049062E082E00E94A80641E063E082E00E94FC
S11304A0A8068C2FF80109958823D1F13FC0C230EA
S11304B0D105D1F441E060E082E00E94A80641E069
S11304C061E082E00E94A80640E062E082E00E94CF
S11304D0A80641E063E082E00E94A8068C2FF801A0
S11304E009958823E9F022C0C330D105C9F441E05D
S11304F060E082E00E94A80641E061E082E00E94A0
S1130500A80641E062E082E00E94A80640E063E0C1
S113051082E00E94A8068C2FF8010995811106C07B
S11305202196C430D1050CF488CF80E0DF91CF91BF
S11305301F910F910895CF93DF93EA010E94490719
S11305409881891302C092E001C0982F8883892F73
S1130550DF91CF910895813069F138F0823009F448
S11305604EC0833009F470C091C04BEA50E064E09F
S113057082E00E949B02882309F48AC04CEA50E07E
S113058065E082E00E949B02882309F483C04DEA5F
S113059050E066E082E00E949B02882309F47CC05C
S11305A04EEA50E067E082E00E949B02811176C02F
S11305B08FE208954FEA50E064E082E00E949B02DB
S11305C0882309F46DC040EB50E065E082E00E94AE
S11305D09B02882309F466C041EB50E066E082E0A8
S11305E00E949B02882309F45FC042EB50E067E05D
S11305F082E00E949B02811159C08AE2089543EB74
S113060050E064E082E00E949B02882309F450C019
S113061044EB50E065E082E00E949B02882309F4E9
S113062049C045EB50E066E082E00E949B028823CB
S113063009F442C046EB50E067E082E00E949B026E
S113064081113CC08DE2089547EB50E064E082E004
S11306500E949B028823A1F148EB50E065E082E010
S11306600E949B02882371F149EB50E066E082E02E
S11306700E949B02882341F14AEB50E067E082E04C
S11306800E949B02811122C08BE2089580E00895AC
S113069087E3089588E3089589E3089580E0089541
S11306A084E3089585E3089586E3089580E008953A
S11306B081E3089582E3089583E3089580E0089533
S11306C08FE6089580E308958DE3089580E008950A
S11306D00F931F93CF93C82F40E061E083E00E9403
S11306E0A80640E062E083E00E94A806009165004D
S11306F01091660020916700309168004091690074
S113070050916A006DEB77E386E895E30E9418093F
S113071041E063E083E00E94A80600916500109127
S11307206600209167003091680040916900509103
S11307306A006DEB77E386E895E30E9418096C2F55
S1130740607F83E00E942D07009165001091660090
S113075020916700309168004091690050916A00CF
S11307606DEB77E386E895E30E94180940E063E0C7
S113077083E00E94A8060091650010916600209114
S11307806700309168004091690050916A006DEBF8
S113079077E386E895E30E94180941E063E083E08B
S11307A00E94A806009165001091660020916700E0
S11307B0309168004091690050916A006DEB77E3D5
S11307C086E895E30E94180980E1C89FB0011124CE
S11307D083E00E942D07009165001091660020912E
S11307E06700309168004091690050916A006DEB98
S11307F077E386E895E30E94180940E063E083E02C
S11308000E94A8060091650010916600209167007F
S1130810309168004091690050916A006DEB77E374
S113082086E895E30E941809CF911F910F910895CE
S113083041E063E083E00E94DB0541E061E083E0A6
S11308400E94DB0541E062E083E00E94DB0560E09A
S113085083E00E941D0760E083E00E941D0741E0E1
S113086064E083E00E94DB0541E065E083E00E94F0
S1130870DB0541E066E083E00E94DB0541E067E0E0
S113088083E00E94DB0582E00E94680388E20E9404
S113089068038CE00E94680381E00E946803089565
S11308A00F931F93CF93C82F41E061E083E00E9430
S11308B0A80640E062E083E00E94A806009165007B
S11308C010916600209167003091680040916900A2
S11308D050916A006DEB77E386E895E30E9418096E
S11308E041E063E083E00E94A80600916500109156
S11308F06600209167003091680040916900509132
S11309006A006DEB77E386E895E30E9418096C2F83
S1130910607F83E00E942D070091650010916600BE
S113092020916700309168004091690050916A00FD
S11309306DEB77E386E895E30E94180940E063E0F5
S113094083E00E94A8060091650010916600209142
S11309506700309168004091690050916A006DEB26
S113096077E386E895E30E94180941E063E083E0B9
S11309700E94A8060091650010916600209167000E
S1130980309168004091690050916A006DEB77E303
S113099086E895E30E94180980E1C89FB0011124FC
S11309A083E00E942D07009165001091660020915C
S11309B06700309168004091690050916A006DEBC6
S11309C077E386E895E30E94180940E063E083E05A
S11309D00E94A806009165001091660020916700AE
S11309E0309168004091690050916A006DEB77E3A3
S11309F086E895E30E941809CF911F910F910895FD
S1130A000F931F93CF938C01C0E003C00E94500446
S1130A10CF5FF801EC0FF11D80818111F7CFCF91E9
S1130A201F910F910895813039F058F0823031F0E0
S1130A30833031F060E005C0605C03C0605F01C0DA
S1130A40605B862F80680E9468030895CF93DF93CC
S1130A50EA010E941305CE010E940005DF91CF91A7
S1130A60089581E00E946803089520EC40E067E067
S1130A7080E290E00E94B90508950E94CD0524E625
S1130A80829FC0011124BC01990F880B990B0E940D
S1130A90640C2AE037ED43E250E40E94190D20E093
S1130AA030E040E85AE30E94190D0E94330C862F6F
S1130AB008951F93CF93DF9300D000D01F92CDB73A
S1130AC0DEB749835A836B837C83182F811106C058
S1130AD040E050E060E080E00E947707113031F49C
S1130AE040E050E060E081E00E9477076A8168306E
S1130AF060F41C81183048F441E089810E94DB05D0
S1130B0041E0612F8B810E94DB050F900F900F90C5
S1130B100F900F90DF91CF911F9108951F93CF9362
S1130B20DF9300D000D01F92CDB7DEB7942F6B8334
S1130B307C838D83122F40E0652F892F0E94A806A5
S1130B4041E06C818B810E94A806153620F4612F48
S1130B508D810E9427080F900F900F900F900F9097
S1130B60DF91CF911F9108950E9449000E942101B5
S1130B70FDCF17B816B836B1306836B937B1232B64
S1130B8027B926B1862B482B242B26B980B78F7121
S1130B9080BF80B7982B90BF089597B1892B87B9F0
S1130BA086B1806486B9349BFECF86B1806186B9F4
S1130BB084B195B108958130C9F138F0823009F4D7
S1130BC066C0833009F494C00895413059F42AB3BF
S1130BD081E090E002C0880F991F6A95E2F7822BAA
S1130BE08ABB089541110CC02AB381E090E002C091
S1130BF0880F991F6A95E2F7809582238ABB08952E
S1130C00423009F0A4C02AB381E090E002C0880F0A
S1130C10991F6A95E2F7982F909592239ABB90B703
S1130C209B7F90BF9BB3892B8BBB0895413059F4B4
S1130C3027B381E090E002C0880F991F6A95E2F71C
S1130C40822B87BB089541110CC027B381E090E04B
S1130C5002C0880F991F6A95E2F78095822387BBAB
S1130C600895423009F073C027B381E090E002C0D8
S1130C70880F991F6A95E2F7982F9095922397BB56
S1130C8090B79B7F90BF98B3892B88BB0895413060
S1130C9059F424B381E090E002C0880F991F6A954B
S1130CA0E2F7822B84BB089541110CC024B381E088
S1130CB090E002C0880F991F6A95E2F7809582231D
S1130CC084BB0895423009F042C024B381E090E02F
S1130CD002C0880F991F6A95E2F7982F9095922386
S1130CE094BB90B79B7F90BF95B3892B85BB089528
S1130CF0413059F421B381E090E002C0880F991F7C
S1130D006A95E2F7822B81BB089541110CC021B38F
S1130D1081E090E002C0880F991F6A95E2F7809500
S1130D20822381BB0895423091F421B381E090E0A5
S1130D3002C0880F991F6A95E2F7982F9095922325
S1130D4091BB90B79B7F90BF92B3892B82BB0895D0
S1130D50813011F130F08230D1F1833009F452C086
S1130D600895413059F42BB381E090E002C0880F1C
S1130D70991F6A95E2F7822B8BBB089541115CC0E1
S1130D802BB381E090E002C0880F991F6A95E2F7C7
S1130D90809582238BBB0895413059F428B381E0B8
S1130DA090E002C0880F991F6A95E2F7822B88BBF6
S1130DB00895411141C028B381E090E002C0880F3A
S1130DC0991F6A95E2F78095822388BB0895413084
S1130DD059F425B381E090E002C0880F991F6A9509
S1130DE0E2F7822B85BB0895411126C025B381E02B
S1130DF090E002C0880F991F6A95E2F780958223DC
S1130E0085BB0895413059F422B381E090E002C0DB
S1130E10880F991F6A95E2F7822B82BB08954111CE
S1130E200BC022B381E090E002C0880F991F6A953D
S1130E30E2F78095822382BB0895813041F028F047
S1130E40823039F0833039F008956BBB089568BB64
S1130E50089565BB089562BB0895813059F028F068
S1130E60823069F0833081F008958BB38F70682BE2
S1130E706BBB089588B38F70682B68BB089585B3E6
S1130E808F70682B65BB089582B38F70682B62BB2B
S1130E900895813079F028F08230A9F08330E1F0B0
S1130EA024C089B390E002C0959587956A95E2F7CE
S1130EB08170089586B390E002C0959587956A95F0
S1130EC0E2F78170089583B390E002C09595879509
S1130ED06A95E2F78170089580B390E002C0959519
S1130EE087956A95E2F78170089580E008958111ED
S1130EF056C087B3886087BB611127C04034510551
S1130F00C1F038F44115510561F04830510569F0DC
S1130F100895411581E0580781F04115544089F046
S1130F20089583B7896683BF089583B78A6683BFAC
S1130F30089583B78B6683BF089583B78C6683BF98
S1130F40089583B78D6683BF0895613009F07EC02C
S1130F5040345105C1F038F44115510561F0483071
S1130F60510569F00895411581E0580781F0411554
S1130F70544089F0089583B7896783BF089583B780
S1130F808A6783BF089583B78B6783BF089583B748
S1130F908C6783BF089583B78D6783BF08958130BD
S1130FA009F054C081B3806881BB611127C040340B
S1130FB05105C1F038F44115510561F0483051052F
S1130FC069F00895411581E0580781F041155440B6
S1130FD089F0089585B5896685BD089585B58A66C5
S1130FE085BD089585B58B6685BD089585B58C66E8
S1130FF085BD089585B58D6685BD0895613031F54B
S113100040345105C1F038F44115510561F04830C0
S1131010510569F00895411581E0580781F04115A3
S1131020544089F0089585B5896785BD089585B5CF
S11310308A6785BD089585B58B6785BD089585B597
S11310408C6785BD089585B58D6785BD0895282F66
S11310503FEF639FC001112464E670E00E94860D97
S1131060211102C06CBF0895213009F463BD0895B5
S11310708130910551F483B7816083BF83B78D7F3D
S113108083BF83B78B7F83BF08958830910551F464
S113109083B78E7F83BF83B7826083BF83B78B7F21
S11310A083BF08958034910551F483B7816083BF71
S11310B083B7826083BF83B78B7F83BF0895811515
S11310C021E0920751F483B78E7F83BF83B78D7F6E
S11310D083BF83B7846083BF08958115944049F426
S11310E083B7816083BF83B78D7F83BF83B78460F9
S11310F083BF08958130910551F48EB581608EBD12
S11311008EB58D7F8EBD8EB58B7F8EBD0895883054
S1131110910551F48EB58E7F8EBD8EB582608EBDE5
S11311208EB58B7F8EBD08958034910551F48EB5B4
S113113081608EBD8EB582608EBD8EB58B7F8EBD77
S11311400895811521E0920751F48EB58E7F8EBDEE
S11311508EB58D7F8EBD8EB584608EBD089581154C
S1131160944049F48EB581608EBD8EB58D7F8EBD61
S11311708EB584608EBD08958130910551F485B596
S1131180816085BD85B58D7F85BD85B58B7F85BD2A
S113119008958830910551F485B58E7F85BD85B558
S11311A0826085BD85B58B7F85BD089580329105AC
S11311B051F485B5816085BD85B5826085BD85B5F1
S11311C08B7F85BD08958034910551F485B58E7F5C
S11311D085BD85B58D7F85BD85B5846085BD089544
S11311E08038910551F485B5816085BD85B58D7FC5
S11311F085BD85B5846085BD0895811521E092077C
S113120051F485B58E7F85BD85B5826085BD85B574
S1131210846085BD08958115944049F485B5816045
S113122085BD85B5826085BD85B5846085BD08951D
S11312304F925F926F927F928F929F92AF92BF92E2
S1131240CF92DF92EF92FF920F931F93CF93DF938E
S1131250CDB7DEB72A970FB6F894DEBF0FBECDBF69
S11312606B017C0109831A832B833C834D835E834A
S1131270033509F071C037C06A817B818C819D81FF
S1131280E12FF0E0EE0FFF1FE758FF4FA080B18081
S1131290950140E050E00E949A0D842F952F422E34
S11312A0532E642E752E622F732F0E94620C6F834F
S11312B0788789879A87A701960160E070E08FE7B5
S11312C093E40E94BA0B9B01AC016F8178858985F8
S11312D09A850E94B50B882324F44528462847287C
S11312E049F41F5F01C010E0153030F201E010E056
S11312F080E002C0850181E0882309F438C1C80177
S11313000E9438086A817B818C819D810E94620CD5
S1131310A70196010E94190D6B017C01B80180E0C0
S113132090E00E94620C9B01AC01C701B6010E94CF
S1131330BA0B9B01AC0160E070E08FE793E40E947C
S1131340480B0E942C0C62BF08B600FEFDCF88B784
S1131350816088BF81E010C1053409F071C037C0D5
S11313606A817B818C819D81E12FF0E0EE0FFF1F6C
S1131370E559FF4FA080B180950140E050E00E9404
S11313809A0D842F952F422E532E642E752E622F84
S1131390732F0E94620C6F83788789879A87A701CD
S11313A0960160E070E08FE793E40E94BA0B9B0122
S11313B0AC016F81788589859A850E94B50B882355
S11313C024F445284628472849F41F5F01C010E04B
S11313D0173030F201E010E080E002C0850181E0C6
S11313E0882309F4C6C0C8010E94BC086A817B81B5
S11313F08C819D810E94620CA70196010E94190DA7
S11314006B017C01B80180E090E00E94620C9B01BA
S1131410AC01C701B6010E94BA0B9B01AC0160E0AC
S113142070E08FE793E40E94480B0E942C0C64BD8B
S113143008B606FEFDCF88B7806488BF81E09CC0F3
S11314400F34E9F180E098C06A817B818C819D81B1
S1131450E12FF0E0EE0FFF1FE758FF4FA080B180AF
S1131460950140E050E00E949A0D29013A01B9012A
S113147080E090E00E94620C6F83788789879A8766
S1131480A701960160E070E080E897E40E94BA0B3F
S11314909B01AC016F81788589859A850E94B50B83
S11314A088235CF4C301B2010E94620C20E030E0A6
S11314B0A9010E94140D18164CF01F5F01C010E022
S11314C0153010F201E010E080E002C0850181E0F7
S11314D0882309F450C0C8010E947A086A817B817C
S11314E08C819D810E94620CA70196010E94190DB6
S11314F02B013C01B80180E090E00E94620C4B019A
S11315005C019B01AC01C301B2010E94BA0B9B01B7
S1131510AC0160E070E080E897E40E94480B0E9410
S1131520330C7DBD6A817B818C819D810E94620C1C
S1131530A70196010E94190DA50194010E94BA0BFE
S11315409B01AC0160E070E080E897E40E94480BE6
S11315500E94330C21E0672B09F420E02CBD08B66F
S113156002FEFDCF88B7846088BF81E005C080E0BB
S113157003C080E001C080E02A960FB6F894DEBF75
S11315800FBECDBFDF91CF911F910F91FF90EF90D0
S1131590DF90CF90BF90AF909F908F907F906F908F
S11315A05F904F9008951F920F920FB60F921124DF
S11315B02F933F934F935F936F937F938F939F9357
S11315C0AF93BF93EF93FF93E091C100F091C200FA
S11315D00995FF91EF91BF91AF919F918F917F9169
S11315E06F915F914F913F912F910F900FBE0F908C
S11315F01F9018951F920F920FB60F9211242F93DC
S11316003F934F935F936F937F938F939F93AF9386
S1131610BF93EF93FF93E091C500F091C600099545
S1131620FF91EF91BF91AF919F918F917F916F91B6
S11316305F914F913F912F910F900FBE0F901F908C
S113164018951F920F920FB60F9211242F933F9368
S11316504F935F936F937F938F939F93AF93BF93B6
S1131660EF93FF93E091C300F091C4000995FF91BB
S1131670EF91BF91AF919F918F917F916F915F9106
S11316804F913F912F910F900FBE0F901F9018957F
S11316905058BB27AA270E94600B0C94DA0C0E94B6
S11316A0CC0C38F00E94D30C20F039F49F3F19F48D
S11316B026F40C94C90C0EF4E095E7FB0C94C30CCF
S11316C0E92F0E94EB0C58F3BA17620773078407DB
S11316D0950720F079F4A6F50C940D0D0EF4E09521
S11316E00B2EBA2FA02D0B01B90190010C01CA01D8
S11316F0A0011124FF27591B99F0593F50F4503E83
S113170068F11A16F040A22F232F342F4427585F74
S1131710F3CF469537952795A795F0405395C9F78C
S11317207EF41F16BA0B620B730B840BBAF0915044
S1131730A1F0FF0FBB1F661F771F881FC2F70EC0E3
S1131740BA0F621F731F841F48F4879577956795B6
S1131750B795F7959E3F08F0B0CF9395880F08F0A2
S11317609927EE0F9795879508950E949F0C08F48A
S113177081E008950E94CE0B0C94DA0C0E94D30CE5
S113178058F00E94CC0C40F029F45F3F29F00C94EF
S1131790C30C51110C940E0D0C94C90C0E94EB0C4B
S11317A068F39923B1F3552391F3951B550BBB278C
S11317B0AA2762177307840738F09F5F5F4F220FD1
S11317C0331F441FAA1FA9F335D00E2E3AF0E0E8C8
S11317D032D091505040E695001CCAF72BD0FE2F12
S11317E029D0660F771F881FBB1F261737074807A6
S11317F0AB07B0E809F0BB0B802DBF01FF2793585E
S11318005F4F3AF09E3F510578F00C94C30C0C9452
S11318100E0D5F3FE4F3983ED4F386957795679574
S1131820B795F7959F5FC9F7880F911D9695879592
S113183097F90895E1E0660F771F881FBB1F6217B1
S113184073078407BA0720F0621B730B840BBA0B6F
S1131850EE1F88F7E09508950E94330C6894B11147
S11318600C940E0D08950E94F30C88F09F5798F085
S1131870B92F9927B751B0F0E1F0660F771F881F91
S1131880991F1AF0BA95C9F714C0B13091F00E94AB
S11318900D0DB1E008950C940D0D672F782F882756
S11318A0B85F39F0B93FCCF3869577956795B395D2
S11318B0D9F73EF490958095709561957F4F8F4F41
S11318C09F4F0895E89409C097FB3EF49095809546
S11318D0709561957F4F8F4F9F4F9923A9F0F92FF2
S11318E096E9BB279395F695879577956795B79570
S11318F0F111F8CFFAF4BB0F11F460FF1BC06F5F56
S11319007F4F8F4F9F4F16C0882311F096E911C067
S1131910772321F09EE8872F762F05C0662371F088
S113192096E8862F70E060E02AF09A95660F771F9C
S1131930881FDAF7880F9695879597F90895990F78
S11319400008550FAA0BE0E8FEEF16161706E80785
S1131950F907C0F012161306E407F50798F0621BA6
S1131960730B840B950B39F40A2661F0232B242B7B
S1131970252B21F408950A2609F4A140A6958FEF9A
S1131980811D811D089597F99F6780E870E060E0EC
S113199008959FEF80EC089500240A941616170604
S11319A018060906089500240A941216130614064C
S11319B005060895092E0394000C11F4882352F0AF
S11319C0BB0F40F4BF2B11F460FF04C06F5F7F4F67
S11319D08F4F9F4F089557FD9058440F551F59F04E
S11319E05F3F71F04795880F97FB991F61F09F3F08
S11319F079F087950895121613061406551FF2CF31
S1131A004695F1DF08C0161617061806991FF1CF80
S1131A1086957105610508940895E894BB276627A7
S1131A207727CB0197F908950E949F0C08F48FEF54
S1131A3008950E942C0D0C94DA0C0E94CC0C38F002
S1131A400E94D30C20F0952311F00C94C30C0C9439
S1131A50C90C11240C940E0D0E94EB0C70F3959F8D
S1131A60C1F3950F50E0551F629FF001729FBB2791
S1131A70F00DB11D639FAA27F00DB11DAA1F649F2D
S1131A806627B00DA11D661F829F2227B00DA11DE0
S1131A90621F739FB00DA11D621F839FA00D611D66
S1131AA0221F749F3327A00D611D231F849F600D87
S1131AB0211D822F762F6A2F11249F5750409AF0B0
S1131AC0F1F088234AF0EE0FFF1FBB1F661F771F3C
S1131AD0881F91505040A9F79E3F510580F00C9407
S1131AE0C30C0C940E0D5F3FE4F3983ED4F386953B
S1131AF077956795B795F795E7959F5FC1F7FE2BA7
S1131B00880F911D9695879597F9089597FB072E51
S1131B1016F4009407D077FD09D00E94BC0D07FC91
S1131B2005D03EF4909581959F4F089570956195E9
S1131B307F4F0895A1E21A2EAA1BBB1BFD010DC005
S1131B40AA1FBB1FEE1FFF1FA217B307E407F50769
S1131B5020F0A21BB30BE40BF50B661F771F881F45
S1131B60991F1A9469F760957095809590959B01DB
S1131B70AC01BD01CF010895AA1BBB1B51E107C0F5
S1131B80AA1FBB1FA617B70710F0A61BB70B881F09
S1131B90991F5A95A9F780959095BC01CD01089598
S1071BA0F894FFCFE3
S1131BA400010002005340420F000001000800201D
S1131BB4004000800000010004010008004000000F
S1131BC4010004446573697265642054656D700092
S1131BD443757272656E742054656D70004E6F7433
S10B1BE42056616C69642100C4
S9030000FC
