:100000000C943A000C9457000C9457000C94570031
:100010000C94B7090C9457000C9457000C94900959
:100020000C9457000C9457000C9469090C945700D9
:100030000C9457000C9457000C9457000C945700E4
:100040000C9457000C9457000C9457000C945700D4
:100050000C945700620180016401660168016A0125
:100060006C016E01700172017401760178017A01F0
:100070007C017E0111241FBECFE5D8E0DEBFCDBFDD
:1000800010E0A0E6B0E0ECEDF8E102C005900D92C2
:10009000AE38B107D9F720E0AEE8B0E001C01D925C
:1000A000A739B207E1F70E941C040C946C0C0C9465
:1000B000000080919000813011F480938F000895AA
:1000C0000E94660280E00E9483034091600050918C
:1000D00061006091620070916300809164000E94F1
:1000E0008E0321E049E550E060E070E080EA90E4B2
:1000F0000E94E9034BE750E060E080E00E94740357
:100100001092900089E180938E0010928F000895E4
:100110001F93CF93DF9300D01F92CDB7DEB7198224
:100120001A821B8210E00E9482018D33B1F08A3264
:10013000A1F0853291F08B3281F08D3271F091E037
:1001400090939000123078F7E1E0F0E0EC0FFD1FA3
:10015000E10FF11D80831F5FE6CF8D3321F70FC0C4
:10016000880F982F990F990F890FE1E0F0E0EC0FBD
:10017000FD1FE20FF11D9081890F2F5F02C080E00B
:1001800020E0223068F390E001C09F5F9330E8F3F5
:1001900091EF980F903108F080E00F900F900F9042
:1001A000DF91CF911F91089580E00E948B03089505
:1001B000681770F420E540916000509161006091F3
:1001C000620070916300809164000E94C3030895EF
:1001D00020E0409160005091610060916200709158
:1001E0006300809164000E94C3030895FB019DECAD
:1001F000899F912D112496959695969590839111AE
:1002000004C0805D808311820895392F330F232F1E
:10021000220F220F230F821B905D9083805D8183CC
:100220001282089560E070E00E94F6000E947F0351
:1002300080E090E00E944E03089560E070E08091BD
:100240008E000E94F6000E947F0380E090E00E94F2
:100250004E030895CF930E94D400C82F0E948800B7
:1002600080938E00882359F091E090939000109233
:100270008F00682F8C2F0E94D80081E001C080E0A1
:10028000813031F480918F00813011F41092900010
:1002900080919000813031F480918E0090E00E9436
:1002A0001D0103C08C2F0E941201CF910895482F89
:1002B00050E0FA013197E031F10518F5E65DFF4FA6
:1002C0000C94520C87E0089589E0089585E2089522
:1002D00084E0089585E0089586E008958AE208950F
:1002E00081E0089582E0089583E008958DE2089505
:1002F0008DE0089580E008958DE308958BE20895E0
:1003000088E00895CF93DF93D0E02AC060E082E0D8
:100310000E942D0541E064E06D0F82E00E944304DD
:1003200060E170E00D2E02C0660F771F0A94E2F7BD
:10033000609582E00E945905C0E00FC06C2F82E0FA
:100340000E948505811108C0CC0FCC0F8C2F8D0F1A
:100350008F5F0E94570107C0CF5FC43078F3DF5F23
:10036000D430A0F2D1CFDF91CF9108950F931F9396
:10037000CF93C82F40E061E083E00E94B80440E0E2
:1003800062E083E00E94B80400916500109166006D
:1003900020916700309168004091690050916A0097
:1003A0006DEB77E386E895E30E94F80641E063E0B1
:1003B00083E00E94B80400916500109166002091CE
:1003C0006700309168004091690050916A006DEBC0
:1003D00077E386E895E30E94F8066C2F607F83E060
:1003E0000E946905009165001091660020916700E8
:1003F000309168004091690050916A006DEB77E39D
:1004000086E895E30E94F80640E063E083E00E94FE
:10041000B80400916500109166002091670030914A
:1004200068004091690050916A006DEB77E386E8BF
:1004300095E30E94F80641E063E083E00E94B8047F
:10044000009165001091660020916700309168006E
:100450004091690050916A006DEB77E386E895E37F
:100460000E94F80680E1C89FB001112483E00E9439
:100470006905009165001091660020916700309138
:1004800068004091690050916A006DEB77E386E85F
:1004900095E30E94F80640E063E083E00E94B80420
:1004A000009165001091660020916700309168000E
:1004B0004091690050916A006DEB77E386E895E31F
:1004C0000E94F806CF911F910F91089541E063E0DB
:1004D00083E00E94430441E061E083E00E94430422
:1004E00041E062E083E00E94430460E083E00E9418
:1004F000590560E083E00E94590541E064E083E033
:100500000E94430441E065E083E00E94430441E02F
:1005100066E083E00E94430441E067E083E00E94DC
:10052000430482E00E94B60188E20E94B6018CE09A
:100530000E94B60181E00E94B60108950F931F93B7
:10054000CF93C82F41E061E083E00E94B80440E00F
:1005500062E083E00E94B80400916500109166009B
:1005600020916700309168004091690050916A00C5
:100570006DEB77E386E895E30E94F80641E063E0DF
:1005800083E00E94B80400916500109166002091FC
:100590006700309168004091690050916A006DEBEE
:1005A00077E386E895E30E94F8066C2F607F83E08E
:1005B0000E94690500916500109166002091670016
:1005C000309168004091690050916A006DEB77E3CB
:1005D00086E895E30E94F80640E063E083E00E942D
:1005E000B804009165001091660020916700309179
:1005F00068004091690050916A006DEB77E386E8EE
:1006000095E30E94F80641E063E083E00E94B804AD
:10061000009165001091660020916700309168009C
:100620004091690050916A006DEB77E386E895E3AD
:100630000E94F80680E1C89FB001112483E00E9467
:100640006905009165001091660020916700309166
:1006500068004091690050916A006DEB77E386E88D
:1006600095E30E94F80640E063E083E00E94B8044E
:10067000009165001091660020916700309168003C
:100680004091690050916A006DEB77E386E895E34D
:100690000E94F806CF911F910F9108950F931F9319
:1006A000CF938C01C0E003C00E949E02CF5FF8018F
:1006B000EC0FF11D80818111F7CFCF911F910F9128
:1006C0000895813039F058F0823031F0833031F0C4
:1006D00060E005C0605C03C0605F01C0605B862FA6
:1006E00080680E94B6010895CF93DF93EA010E94CB
:1006F0006103CE010E944E03DF91CF91089581E006
:100700000E94B601089520EC40E067E080E290E0AE
:100710000E94210408950E94350408951F93CF93E9
:10072000DF9300D000D01F92CDB7DEB749835A8344
:100730006B837C83182F811106C040E050E060E09D
:1007400080E00E94B305113031F440E050E060E0F9
:1007500081E00E94B3056A81683060F41C81183022
:1007600048F441E089810E94430441E0612F8B817C
:100770000E9443040F900F900F900F900F90DF9105
:10078000CF911F9108951F93CF93DF9300D000D096
:100790001F92CDB7DEB7942F6B837C838D83122F8E
:1007A00040E0652F892F0E94B80441E06C818B8165
:1007B0000E94B804153620F4612F8D810E946306D3
:1007C0000F900F900F900F900F90DF91CF911F918E
:1007D00008958F929F92AF92BF92CF92DF92EF9245
:1007E000FF920F931F93CF93DF934B015C016A013C
:1007F000D22FC0E012C0760100916B0010916C0006
:1008000020916D0030916E0040916F00509170000A
:10081000C501B4010E943D08CF5FCD1760F3DF91A1
:10082000CF911F910F91FF90EF90DF90CF90BF90ED
:10083000AF909F908F9008950E9460000E942A01BF
:10084000FDCF17B816B836B1306836B937B1232B9B
:1008500027B926B1862B482B242B26B980B78F7158
:1008600080BF80B7982B90BF089597B1892B87B927
:1008700086B1806486B9349BFECF86B1806186B92B
:1008800084B195B10895813011F130F08230D1F109
:10089000833009F452C00895413059F42AB381E0FD
:1008A00090E002C0880F991F6A95E2F7822B8ABBFD
:1008B000089541115CC02AB381E090E002C0880F26
:1008C000991F6A95E2F7809582238ABB089541308B
:1008D00059F427B381E090E002C0880F991F6A9510
:1008E000E2F7822B87BB0895411141C027B381E015
:1008F00090E002C0880F991F6A95E2F780958223E5
:1009000087BB0895413059F424B381E090E002C0E0
:10091000880F991F6A95E2F7822B84BB08954111D5
:1009200026C024B381E090E002C0880F991F6A9529
:10093000E2F78095822384BB0895413059F421B3B6
:1009400081E090E002C0880F991F6A95E2F7822B40
:1009500081BB089541110BC021B381E090E002C03A
:10096000880F991F6A95E2F78095822381BB0895CD
:10097000813011F130F08230D1F1833009F452C06E
:100980000895413059F42BB381E090E002C0880F04
:10099000991F6A95E2F7822B8BBB089541115CC0C9
:1009A0002BB381E090E002C0880F991F6A95E2F7AF
:1009B000809582238BBB0895413059F428B381E0A0
:1009C00090E002C0880F991F6A95E2F7822B88BBDE
:1009D0000895411141C028B381E090E002C0880F22
:1009E000991F6A95E2F78095822388BB089541306C
:1009F00059F425B381E090E002C0880F991F6A95F1
:100A0000E2F7822B85BB0895411126C025B381E012
:100A100090E002C0880F991F6A95E2F780958223C3
:100A200085BB0895413059F422B381E090E002C0C3
:100A3000880F991F6A95E2F7822B82BB08954111B6
:100A40000BC022B381E090E002C0880F991F6A9525
:100A5000E2F78095822382BB0895813079F028F0F7
:100A60008230A9F08330E1F00895613019F48FEFFE
:100A70008ABB089561111CC01ABA0895613019F437
:100A80008FEF87BB0895611113C017BA08956130C5
:100A900019F48FEF84BB089561110AC014BA089548
:100AA000613019F48FEF81BB0895611101C011BA53
:100AB0000895813041F028F0823039F0833039F0E8
:100AC00008956BBB089568BB089565BB089562BB2C
:100AD0000895813059F028F0823069F0833081F038
:100AE00008958BB38F70682B6BBB089588B38F709C
:100AF000682B68BB089585B38F70682B65BB08951C
:100B000082B38F70682B62BB0895813079F028F032
:100B10008230A9F08330E1F024C089B390E002C0B4
:100B2000959587956A95E2F78170089586B390E070
:100B300002C0959587956A95E2F78170089583B311
:100B400090E002C0959587956A95E2F781700895C7
:100B500080B390E002C0959587956A95E2F7817021
:100B6000089580E00895811156C087B3886087BBDF
:100B7000611127C040345105C1F038F441155105C9
:100B800061F04830510569F00895411581E058073A
:100B900081F04115544089F0089583B7896683BF79
:100BA000089583B78A6683BF089583B78B6683BF32
:100BB000089583B78C6683BF089583B78D6683BF1E
:100BC0000895613009F07EC040345105C1F038F419
:100BD0004115510561F04830510569F008954115FE
:100BE00081E0580781F04115544089F0089583B79A
:100BF000896783BF089583B78A6783BF089583B7E2
:100C00008B6783BF089583B78C6783BF089583B7CD
:100C10008D6783BF0895813009F054C081B3806827
:100C200081BB611127C040345105C1F038F4411532
:100C3000510561F04830510569F00895411581E092
:100C4000580781F04115544089F0089585B58966AB
:100C500085BD089585B58A6685BD089585B58B6681
:100C600085BD089585B58C6685BD089585B58D666D
:100C700085BD0895613031F540345105C1F038F437
:100C80004115510561F04830510569F0089541154D
:100C900081E0580781F04115544089F0089585B5E9
:100CA000896785BD089585B58A6785BD089585B531
:100CB0008B6785BD089585B58C6785BD089585B51D
:100CC0008D6785BD0895282F3FEF639FC0011124D4
:100CD00064E670E00E941C0C211102C06CBF0895F4
:100CE000213009F463BD08958130910551F483B733
:100CF000816083BF83B78D7F83BF83B78B7F83BFC3
:100D000008958830910551F483B78E7F83BF83B7F0
:100D1000826083BF83B78B7F83BF08958034910542
:100D200051F483B7816083BF83B7826083BF83B789
:100D30008B7F83BF0895811521E0920751F483B71B
:100D40008E7F83BF83B78D7F83BF83B7846083BF6C
:100D500008958115944049F483B7816083BF83B7B8
:100D60008D7F83BF83B7846083BF089581309105F1
:100D700051F48EB581608EBD8EB58D7F8EBD8EB5E2
:100D80008B7F8EBD08958830910551F48EB58E7F8E
:100D90008EBD8EB582608EBD8EB58B7F8EBD089563
:100DA0008034910551F48EB581608EBD8EB5826020
:100DB0008EBD8EB58B7F8EBD0895811521E0920783
:100DC00051F48EB58E7F8EBD8EB58D7F8EBD8EB566
:100DD00084608EBD08958115944049F48EB581607C
:100DE0008EBD8EB58D7F8EBD8EB584608EBD08950F
:100DF0004F925F926F927F928F929F92AF92BF922B
:100E0000CF92DF92EF92FF920F931F93CF93DF93D6
:100E1000CDB7DEB72A970FB6F894DEBF0FBECDBFB1
:100E20006B017C0109831A832B833C834D835E8392
:100E3000033509F071C037C06A817B818C819D8147
:100E4000E12FF0E0EE0FFF1FEF58FF4FA080B180C1
:100E5000950140E050E00E94300C842F952F422EE7
:100E6000532E642E752E622F732F0E94F80A6F8303
:100E7000788789879A87A701960160E070E08FE7FD
:100E800093E40E94500A9B01AC016F8178858985AB
:100E90009A850E944B0A882324F44528462847282F
:100EA00049F41F5F01C010E0153030F201E010E09E
:100EB00080E002C0850181E0882309F4C4C0C80134
:100EC0000E9474066A817B818C819D810E94F80A50
:100ED000A70196010E94AF0B6B017C01B80180E075
:100EE00090E00E94F80A9B01AC01C701B6010E9484
:100EF000500A9B01AC0160E070E08FE793E40E9430
:100F0000DE090E94C20A62BF08B600FEFDCF88B7A4
:100F1000816088BF81E09AC00F34E9F180E096C01B
:100F20006A817B818C819D81E12FF0E0EE0FFF1FB4
:100F3000EF58FF4FA080B180950140E050E00E9443
:100F4000300C29013A01B90180E090E00E94F80AD2
:100F50006F83788789879A87A701960160E070E0A0
:100F600080E897E40E94500A9B01AC016F8178856C
:100F700089859A850E944B0A88235CF4C301B201DB
:100F80000E94F80A20E030E0A9010E94AA0B18167E
:100F90004CF01F5F01C010E0153010F201E010E0CE
:100FA00080E002C0850181E0882309F44EC0C801B9
:100FB0000E94B6066A817B818C819D810E94F80A1D
:100FC000A70196010E94AF0B2B013C01B80180E004
:100FD00090E00E94F80A4B015C019B01AC01C30147
:100FE000B2010E94500A9B01AC0160E070E080E811
:100FF00097E40E94DE090E94C90A7DBD6A817B8157
:101000008C819D810E94F80AA70196010E94AF0B76
:10101000A50194010E94500A9B01AC0160E070E0C0
:1010200080E897E40E94DE090E94C90A21E0672B4C
:1010300009F420E02CBD08B602FEFDCF88B784601D
:1010400088BF81E003C080E001C080E02A960FB62F
:10105000F894DEBF0FBECDBFDF91CF911F910F91EE
:10106000FF90EF90DF90CF90BF90AF909F908F90C8
:101070007F906F905F904F9008954F925F926F9224
:101080007F928F929F92AF92BF92CF92DF92EF9218
:10109000FF920F931F93CF93DF9300D000D000D027
:1010A000CDB7DEB709831A832B833C834D835E83E0
:1010B000523009F0F0C097016B017C018FB7806856
:1010C0008FBF89B7826089BF8981833509F063C08A
:1010D000309392002093910010E033C06A817B81AD
:1010E0008C819D810E94F80AA70196010E94AF0B96
:1010F0002B013C01E12FF0E0EE0FFF1FEF58FF4FF7
:10110000A080B180B50180E090E00E94F80A9B01C8
:10111000AC01C301B2010E94500A2B013C0120E046
:1011200030E04FE753E40E944B0A88234CF420E060
:1011300030E0A901C301B2010E94AA0B18163CF0CD
:101140001F5F153058F201E010E080E002C0850119
:1011500081E0882309F4A1C0C8010E9474066A8155
:101160007B818C819D810E94F80AA70196010E94D3
:10117000AF0B6B017C01B80180E090E00E94F80A9F
:101180009B01AC01C701B6010E94500A0E94C20A2D
:101190006CBF81E087C089B7806189BF89818F3446
:1011A00009F07DC0309396002093950010E033C085
:1011B0006A817B818C819D810E94F80AA70196013A
:1011C0000E94AF0B2B013C01E12FF0E0EE0FFF1F5F
:1011D000EF58FF4FA080B180B50180E090E00E9401
:1011E000F80A9B01AC01C301B2010E94500A2B0115
:1011F0003C0120E030E040E857E40E944B0A88239D
:101200004CF420E030E0A901C301B2010E94AA0B16
:1012100018163CF01F5F153058F201E010E080E036
:1012200002C0850181E08823E1F1C8010E94B60671
:101230006A817B818C819D810E94F80AA7019601B9
:101240000E94AF0B2B013C01B80180E090E00E94AE
:10125000F80A4B015C019B01AC01C301B2010E9481
:10126000500A0E94C90A7BBD6A817B818C819D8165
:101270000E94F80AA70196010E94AF0BA5019401F4
:101280000E94500A0E94C90A21E0672B09F420E05D
:101290002ABD81E007C080E005C080E003C080E097
:1012A00001C080E026960FB6F894DEBF0FBECDBF1A
:1012B000DF91CF911F910F91FF90EF90DF90CF9032
:1012C000BF90AF909F908F907F906F905F904F9066
:1012D00008951F920F920FB60F9211242F933F93F0
:1012E0004F935F936F937F938F939F93AF93BF932E
:1012F000EF93FF93E0919100F09192000995FF9197
:10130000EF91BF91AF919F918F917F916F915F917D
:101310004F913F912F910F900FBE0F901F901895F6
:101320001F920F920FB60F9211242F933F934F935A
:101330005F936F937F938F939F93AF93BF93EF933D
:10134000FF93E0919500F09196000995FF91EF9140
:10135000BF91AF919F918F917F916F915F914F91CD
:101360003F912F910F900FBE0F901F9018951F92D5
:101370000F920FB60F9211242F933F934F935F93C9
:101380006F937F938F939F93AF93BF93EF93FF934D
:10139000E0919300F09194000995FF91EF91BF9136
:1013A000AF919F918F917F916F915F914F913F91FD
:1013B0002F910F900FBE0F901F9018955058BB277C
:1013C000AA270E94F6090C94700B0E94620B38F059
:1013D0000E94690B20F039F49F3F19F426F40C9415
:1013E0005F0B0EF4E095E7FB0C94590BE92F0E947C
:1013F000810B58F3BA17620773078407950720F02B
:1014000079F4A6F50C94A30B0EF4E0950B2EBA2FED
:10141000A02D0B01B90190010C01CA01A0011124FA
:10142000FF27591B99F0593F50F4503E68F11A16A6
:10143000F040A22F232F342F4427585FF3CF469537
:1014400037952795A795F0405395C9F77EF41F1659
:10145000BA0B620B730B840BBAF09150A1F0FF0F23
:10146000BB1F661F771F881FC2F70EC0BA0F621F0F
:10147000731F841F48F4879577956795B795F795FF
:101480009E3F08F0B0CF9395880F08F09927EE0F94
:101490009795879508950E94350B08F481E008958B
:1014A0000E94640A0C94700B0E94690B58F00E9411
:1014B000620B40F029F45F3F29F00C94590B511155
:1014C0000C94A40B0C945F0B0E94810B68F399237E
:1014D000B1F3552391F3951B550BBB27AA27621730
:1014E0007307840738F09F5F5F4F220F331F441F3D
:1014F000AA1FA9F335D00E2E3AF0E0E832D0915071
:101500005040E695001CCAF72BD0FE2F29D0660F5D
:10151000771F881FBB1F261737074807AB07B0E8A0
:1015200009F0BB0B802DBF01FF2793585F4F3AF0A6
:101530009E3F510578F00C94590B0C94A40B5F3F1F
:10154000E4F3983ED4F3869577956795B795F7952C
:101550009F5FC9F7880F911D9695879597F9089514
:10156000E1E0660F771F881FBB1F621773078407B0
:10157000BA0720F0621B730B840BBA0BEE1F88F7BF
:10158000E09508950E94C90A6894B1110C94A40BC7
:1015900008950E94890B88F09F5798F0B92F9927DA
:1015A000B751B0F0E1F0660F771F881F991F1AF04E
:1015B000BA95C9F714C0B13091F00E94A30BB1E005
:1015C00008950C94A30B672F782F8827B85F39F004
:1015D000B93FCCF3869577956795B395D9F73EF4E7
:1015E00090958095709561957F4F8F4F9F4F08958F
:1015F000E89409C097FB3EF49095809570956195AD
:101600007F4F8F4F9F4F9923A9F0F92F96E9BB2762
:101610009395F695879577956795B795F111F8CFDE
:10162000FAF4BB0F11F460FF1BC06F5F7F4F8F4F49
:101630009F4F16C0882311F096E911C0772321F03F
:101640009EE8872F762F05C0662371F096E8862FD7
:1016500070E060E02AF09A95660F771F881FDAF72E
:10166000880F9695879597F90895990F0008550F5B
:10167000AA0BE0E8FEEF16161706E807F907C0F018
:1016800012161306E407F50798F0621B730B840B20
:10169000950B39F40A2661F0232B242B252B21F4FA
:1016A00008950A2609F4A140A6958FEF811D811D9A
:1016B000089597F99F6780E870E060E008959FEFD4
:1016C00080EC089500240A941616170618060906D9
:1016D000089500240A9412161306140605060895A8
:1016E000092E0394000C11F4882352F0BB0F40F430
:1016F000BF2B11F460FF04C06F5F7F4F8F4F9F4F70
:10170000089557FD9058440F551F59F05F3F71F0F1
:101710004795880F97FB991F61F09F3F79F0879558
:101720000895121613061406551FF2CF4695F1DFE1
:1017300008C0161617061806991FF1CF8695710571
:10174000610508940895E894BB2766277727CB01A5
:1017500097F908950E94350B08F48FEF08950E94C1
:10176000C20B0C94700B0E94620B38F00E94690B44
:1017700020F0952311F00C94590B0C945F0B11245D
:101780000C94A40B0E94810B70F3959FC1F3950FED
:1017900050E0551F629FF001729FBB27F00DB11DF5
:1017A000639FAA27F00DB11DAA1F649F6627B00D85
:1017B000A11D661F829F2227B00DA11D621F739F6E
:1017C000B00DA11D621F839FA00D611D221F749F7C
:1017D0003327A00D611D231F849F600D211D822FC3
:1017E000762F6A2F11249F5750409AF0F1F08823EA
:1017F0004AF0EE0FFF1FBB1F661F771F881F915017
:101800005040A9F79E3F510580F00C94590B0C9461
:10181000A40B5F3FE4F3983ED4F3869577956795E4
:10182000B795F795E7959F5FC1F7FE2B880F911D40
:101830009695879597F9089597FB072E16F40094CF
:1018400007D077FD09D00E94580C07FC05D03EF464
:10185000909581959F4F0895709561957F4F08955C
:10186000A1E21A2EAA1BBB1BFD010DC0AA1FBB1FA4
:10187000EE1FFF1FA217B307E407F50720F0A21B16
:10188000B30BE40BF50B661F771F881F991F1A9483
:1018900069F760957095809590959B01AC01BD01AD
:1018A000CF010895EE0FFF1F0590F491E02D0994EC
:1018B000AA1BBB1B51E107C0AA1FBB1FA617B70776
:1018C00010F0A61BB70B881F991F5A95A9F7809592
:0C18D0009095BC01CD010895F894FFCF65
:1018DC0000010002005340420F00024F40420F0033
:1018EC00020100080040000001000443757272659B
:0E18FC006E742074656D707261747572650093
:00000001FF
