:100000000C942A000C9447000C9447000C94470071
:100010000C94040B0C9447000C9447000C94DD0ADC
:100020000C9447000C9447000C94B60A0C944700BB
:100030000C9447000C9447000C9447000C94470024
:100040000C9447000C9447000C9447000C94470014
:100050000C94470011241FBECFE5D8E0DEBFCDBF12
:1000600010E0A0E6B0E0EAE6FBE102C005900D92E8
:10007000AC39B107D9F720E0ACE9B0E001C01D927E
:10008000AB3BB207E1F70E9497050C94B30D0C94BB
:1000900000000E9414040E94E20180E00E943105E9
:1000A0004091600050916100609162007091630026
:1000B000809164000E943C051092B30089E1809316
:1000C000B0001092B2001092B4001092B1001092E1
:1000D000AF000895FB018A3020F4805D8083118297
:1000E00008959DEC899F912D11249695969596954E
:1000F00020E3290F2083990F292F220F220F920F1F
:10010000891B805D818312820895FC019181911188
:1001100003C0808180530895208130E0205331094D
:10012000220F822F880F880F820F890F8053089526
:1001300080E00E940B028093AF008823E1F190EDF4
:10014000980F9A3010F591E09093B3009091B4001D
:100150009230D8F4292F30E0F901E456FF4F808324
:10016000F901E356FF4F10829F5F9093B4000E9405
:100170002D0543E850E060E080E00E9422054CE954
:1001800050E060E081E00E9422058091AF008D3355
:10019000A1F48CE990E00E9485008093B100109258
:1001A000B400ECE9F0E01082118212828F508031AD
:1001B00030F080E008958FEF08958FEF089581E08B
:1001C000089580E00E9439050895681770F420E5CD
:1001D00040916000509161006091620070916300F5
:1001E000809164000E947105089520E040916000B4
:1001F0005091610060916200709163008091640091
:100200000E9471050895CF93DF9300D01F92CDB760
:10021000DEB7BE016F5F7F4F0E946A000E942D050E
:10022000AE014F5F5F4F60E081E00E9422050F90BA
:100230000F900F90DF91CF910895CF930E94E1002E
:10024000C82F0E9498008F3FA1F0813039F480912F
:10025000B1008093B0001092B3000BC089E180938D
:10026000B0000E942D0540E950E060E080E00E946F
:1002700022058091B300811108C08C2F0E940301D8
:100280006091B0008C2F0E94E500CF9108958130DD
:1002900029F138F0823009F43EC0833009F456C0A9
:1002A0006FC064E082E00E942C07882309F46AC0D2
:1002B00065E082E00E942C07882309F465C066E0AF
:1002C00082E00E942C07882309F460C067E082E086
:1002D0000E942C0781115CC08FE2089564E082E0E7
:1002E0000E942C07882309F455C065E082E00E9433
:1002F0002C07882309F450C066E082E00E942C0796
:10030000882309F44BC067E082E00E942C0781112A
:1003100047C08AE2089564E082E00E942C078823A7
:1003200009F440C065E082E00E942C078823E1F1D7
:1003300066E082E00E942C078823C1F167E082E03A
:100340000E942C07811134C08DE2089564E082E0A0
:100350000E942C07882371F165E082E00E942C073F
:10036000882351F166E082E00E942C07882331F156
:1003700067E082E00E942C07811122C08BE2089581
:1003800080E0089587E3089588E3089589E3089558
:1003900080E0089584E3089585E3089586E3089551
:1003A00080E0089581E3089582E3089583E308954A
:1003B00080E008958FE6089580E308958DE3089521
:1003C00080E0089541E060E082E00E94BE0541E0E7
:1003D00061E082E00E94BE0541E062E082E00E94AE
:1003E000BE0541E063E082E00E94BE0542E064E0B9
:1003F00082E00E94BE0542E065E082E00E94BE0508
:1004000042E066E082E00E94BE0542E067E082E0F2
:100410000E94BE0508950F931F93CF93DF93811120
:1004200003C007EA12E002C007E411E0C0E0D0E038
:1004300074C02097D9F440E060E082E00E948B060F
:1004400041E061E082E00E948B0641E062E082E0F0
:100450000E948B0641E063E082E00E948B068C2FB5
:10046000F8010995882309F457C05CC0C130D10553
:10047000D1F441E060E082E00E948B0640E061E060
:1004800082E00E948B0641E062E082E00E948B06DF
:1004900041E063E082E00E948B068C2FF801099511
:1004A0008823D1F13FC0C230D105D1F441E060E0F2
:1004B00082E00E948B0641E061E082E00E948B06B0
:1004C00040E062E082E00E948B0641E063E082E06F
:1004D0000E948B068C2FF80109958823E9F022C031
:1004E000C330D105C9F441E060E082E00E948B0690
:1004F00041E061E082E00E948B0641E062E082E040
:100500000E948B0640E063E082E00E948B068C2F05
:10051000F8010995811106C02196C430D1050CF46B
:1005200088CF80E0DF91CF911F910F910895CF93F5
:10053000DF93EA010E942C079881891302C092E0A0
:1005400001C0982F8883892FDF91CF910895813042
:1005500069F138F0823009F44EC0833009F470C07C
:1005600091C04FE950E064E082E00E949702882346
:1005700009F48AC040EA50E065E082E00E949702F8
:10058000882309F483C041EA50E066E082E00E94DB
:100590009702882309F47CC042EA50E067E082E0D9
:1005A0000E949702811176C08FE2089543EA50E0DD
:1005B00064E082E00E949702882309F46DC044EA57
:1005C00050E065E082E00E949702882309F466C04B
:1005D00045EA50E066E082E00E949702882309F431
:1005E0005FC046EA50E067E082E00E949702811116
:1005F00059C08AE2089547EA50E064E082E00E9430
:100600009702882309F450C048EA50E065E082E090
:100610000E949702882309F449C049EA50E066E045
:1006200082E00E949702882309F442C04AEA50E01F
:1006300067E082E00E94970281113CC08DE208953C
:100640004BEA50E064E082E00E9497028823A1F127
:100650004CEA50E065E082E00E949702882371F145
:100660004DEA50E066E082E00E949702882341F163
:100670004EEA50E067E082E00E949702811122C0BA
:100680008BE2089580E0089587E3089588E3089554
:1006900089E3089580E0089584E3089585E308954B
:1006A00086E3089580E0089581E3089582E3089544
:1006B00083E3089580E008958FE6089580E3089528
:1006C0008DE3089580E008950F931F93CF93C82F73
:1006D00040E061E083E00E948B0640E062E083E05E
:1006E0000E948B06009165001091660020916700C2
:1006F000309168004091690050916A006DEB77E39A
:1007000086E895E30E94FB0841E063E083E00E94F5
:100710008B06009165001091660020916700309172
:1007200068004091690050916A006DEB77E386E8BC
:1007300095E30E94FB086C2F607F83E00E94100706
:10074000009165001091660020916700309168006B
:100750004091690050916A006DEB77E386E895E37C
:100760000E94FB0840E063E083E00E948B0600915A
:1007700065001091660020916700309168004091FB
:10078000690050916A006DEB77E386E895E30E947B
:10079000FB0841E063E083E00E948B060091650066
:1007A00010916600209167003091680040916900C7
:1007B00050916A006DEB77E386E895E30E94FB08B1
:1007C00080E1C89FB001112483E00E9410070091CE
:1007D000650010916600209167003091680040919B
:1007E000690050916A006DEB77E386E895E30E941B
:1007F000FB0840E063E083E00E948B060091650007
:100800001091660020916700309168004091690066
:1008100050916A006DEB77E386E895E30E94FB0850
:10082000CF911F910F91089541E063E083E00E9412
:10083000BE0541E061E083E00E94BE0541E062E068
:1008400083E00E94BE0560E083E00E94000760E054
:1008500083E00E94000741E064E083E00E94BE055F
:1008600041E065E083E00E94BE0541E066E083E090
:100870000E94BE0541E067E083E00E94BE0582E081
:100880000E94640388E20E9464038CE00E94640377
:1008900081E00E94640308950F931F93CF93C82FA4
:1008A00041E061E083E00E948B0640E062E083E08B
:1008B0000E948B06009165001091660020916700F0
:1008C000309168004091690050916A006DEB77E3C8
:1008D00086E895E30E94FB0841E063E083E00E9424
:1008E0008B060091650010916600209167003091A1
:1008F00068004091690050916A006DEB77E386E8EB
:1009000095E30E94FB086C2F607F83E00E94100734
:100910000091650010916600209167003091680099
:100920004091690050916A006DEB77E386E895E3AA
:100930000E94FB0840E063E083E00E948B06009188
:100940006500109166002091670030916800409129
:10095000690050916A006DEB77E386E895E30E94A9
:10096000FB0841E063E083E00E948B060091650094
:1009700010916600209167003091680040916900F5
:1009800050916A006DEB77E386E895E30E94FB08DF
:1009900080E1C89FB001112483E00E9410070091FC
:1009A00065001091660020916700309168004091C9
:1009B000690050916A006DEB77E386E895E30E9449
:1009C000FB0840E063E083E00E948B060091650035
:1009D0001091660020916700309168004091690095
:1009E00050916A006DEB77E386E895E30E94FB087F
:1009F000CF911F910F9108950F931F93CF938C0167
:100A0000C0E003C00E944C04CF5FF801EC0FF11D61
:100A100080818111F7CFCF911F910F91089581307F
:100A200039F058F0823031F0833031F060E005C0A9
:100A3000605C03C0605F01C0605B862F80680E94BD
:100A400064030895CF93DF93EA010E940F05CE015E
:100A50000E94FC04DF91CF91089581E00E9464031D
:100A6000089520EC40E067E080E290E00E949C0561
:100A700008950E94B00508951F93CF93DF9300D08F
:100A800000D01F92CDB7DEB749835A836B837C8336
:100A9000182F811106C040E050E060E080E00E9425
:100AA0005A07113031F440E050E060E081E00E94EC
:100AB0005A076A81683060F41C81183048F441E0BC
:100AC00089810E94BE0541E0612F8B810E94BE0595
:100AD0000F900F900F900F900F90DF91CF911F917B
:100AE00008951F93CF93DF9300D000D01F92CDB70E
:100AF000DEB7942F6B837C838D83122F40E0652FAC
:100B0000892F0E948B0641E06C818B810E948B06AD
:100B1000153620F4612F8D810E940A080F900F90E6
:100B20000F900F900F90DF91CF911F9108950E9429
:100B300049000E941D01FDCF17B816B836B13068C4
:100B400036B937B1232B27B926B1862B482B242B56
:100B500026B980B78F7180BF80B7982B90BF08955A
:100B600097B1892B87B986B1806486B9349BFECF53
:100B700086B1806186B984B195B108958130C9F19B
:100B800038F0823009F466C0833009F494C00895C7
:100B9000413059F42AB381E090E002C0880F991FD8
:100BA0006A95E2F7822B8ABB089541110CC02AB3E3
:100BB00081E090E002C0880F991F6A95E2F7809566
:100BC00082238ABB0895423009F0A4C02AB381E091
:100BD00090E002C0880F991F6A95E2F7982F9095D0
:100BE00092239ABB90B79B7F90BF9BB3892B8BBB03
:100BF0000895413059F427B381E090E002C0880F96
:100C0000991F6A95E2F7822B87BB089541110CC0AA
:100C100027B381E090E002C0880F991F6A95E2F740
:100C20008095822387BB0895423009F073C027B3B3
:100C300081E090E002C0880F991F6A95E2F7982F33
:100C40009095922397BB90B79B7F90BF98B3892BC9
:100C500088BB0895413059F424B381E090E002C08C
:100C6000880F991F6A95E2F7822B84BB0895411182
:100C70000CC024B381E090E002C0880F991F6A95F0
:100C8000E2F78095822384BB0895423009F042C088
:100C900024B381E090E002C0880F991F6A95E2F7C3
:100CA000982F9095922394BB90B79B7F90BF95B35C
:100CB000892B85BB0895413059F421B381E090E040
:100CC00002C0880F991F6A95E2F7822B81BB0895B5
:100CD00041110CC021B381E090E002C0880F991F40
:100CE0006A95E2F78095822381BB0895423091F4A2
:100CF00021B381E090E002C0880F991F6A95E2F766
:100D0000982F9095922391BB90B79B7F90BF92B301
:100D1000892B82BB0895813011F130F08230D1F1FE
:100D2000833009F452C00895413059F42BB381E067
:100D300090E002C0880F991F6A95E2F7822B8BBB67
:100D4000089541115CC02BB381E090E002C0880F90
:100D5000991F6A95E2F7809582238BBB08954130F5
:100D600059F428B381E090E002C0880F991F6A957A
:100D7000E2F7822B88BB0895411141C028B381E07E
:100D800090E002C0880F991F6A95E2F78095822350
:100D900088BB0895413059F425B381E090E002C04A
:100DA000880F991F6A95E2F7822B85BB0895411140
:100DB00026C025B381E090E002C0880F991F6A9594
:100DC000E2F78095822385BB0895413059F422B320
:100DD00081E090E002C0880F991F6A95E2F7822BAC
:100DE00082BB089541110BC022B381E090E002C0A4
:100DF000880F991F6A95E2F78095822382BB089538
:100E0000813041F028F0823039F0833039F0089594
:100E10006BBB089568BB089565BB089562BB0895D8
:100E2000813059F028F0823069F0833081F00895E4
:100E30008BB38F70682B6BBB089588B38F70682B52
:100E400068BB089585B38F70682B65BB089582B326
:100E50008F70682B62BB0895813079F028F0823062
:100E6000A9F08330E1F024C089B390E002C09595E9
:100E700087956A95E2F78170089586B390E002C085
:100E8000959587956A95E2F78170089583B390E010
:100E900002C0959587956A95E2F78170089580B3B1
:100EA00090E002C0959587956A95E2F78170089564
:100EB00080E00895811156C087B3886087BB6111B7
:100EC00027C040345105C1F038F44115510561F097
:100ED0004830510569F00895411581E0580781F0C7
:100EE0004115544089F0089583B7896683BF0895FA
:100EF00083B78A6683BF089583B78B6683BF0895DF
:100F000083B78C6683BF089583B78D6683BF0895CA
:100F1000613009F07EC040345105C1F038F441150C
:100F2000510561F04830510569F00895411581E09F
:100F3000580781F04115544089F0089583B78967B7
:100F400083BF089583B78A6783BF089583B78B678C
:100F500083BF089583B78C6783BF089583B78D6778
:100F600083BF0895813009F054C081B3806881BB8C
:100F7000611127C040345105C1F038F441155105C5
:100F800061F04830510569F00895411581E0580736
:100F900081F04115544089F0089585B5896685BD75
:100FA000089585B58A6685BD089585B58B6685BD2E
:100FB000089585B58C6685BD089585B58D6685BD1A
:100FC0000895613031F540345105C1F038F44115D0
:100FD000510561F04830510569F00895411581E0EF
:100FE000580781F04115544089F0089585B5896707
:100FF00085BD089585B58A6785BD089585B58B67DC
:1010000085BD089585B58C6785BD089585B58D67C7
:1010100085BD0895282F3FEF639FC001112464E62A
:1010200070E00E94690D211102C06CBF089521304B
:1010300009F463BD08958130910551F483B781604F
:1010400083BF83B78D7F83BF83B78B7F83BF0895B3
:101050008830910551F483B78E7F83BF83B7826058
:1010600083BF83B78B7F83BF08958034910551F48C
:1010700083B7816083BF83B7826083BF83B78B7F71
:1010800083BF0895811521E0920751F483B78E7FC5
:1010900083BF83B78D7F83BF83B7846083BF089589
:1010A0008115944049F483B7816083BF83B78D7FF6
:1010B00083BF83B7846083BF08958130910551F465
:1010C0008EB581608EBD8EB58D7F8EBD8EB58B7FCA
:1010D0008EBD08958830910551F48EB58E7F8EBDFA
:1010E0008EB582608EBD8EB58B7F8EBD08958034A7
:1010F000910551F48EB581608EBD8EB582608EBD36
:101100008EB58B7F8EBD0895811521E0920751F435
:101110008EB58E7F8EBD8EB58D7F8EBD8EB5846073
:101120008EBD08958115944049F48EB581608EBDC1
:101130008EB58D7F8EBD8EB584608EBD0895813055
:10114000910551F485B5816085BD85B58D7F85BDDF
:1011500085B58B7F85BD08958830910551F485B59F
:101160008E7F85BD85B5826085BD85B58B7F85BD4C
:1011700008958032910551F485B5816085BD85B5AE
:10118000826085BD85B58B7F85BD089580349105CE
:1011900051F485B58E7F85BD85B58D7F85BD85B5BF
:1011A000846085BD08958038910551F485B58160CE
:1011B00085BD85B58D7F85BD85B5846085BD089568
:1011C000811521E0920751F485B58E7F85BD85B5E7
:1011D000826085BD85B5846085BD08958115944084
:1011E00049F485B5816085BD85B5826085BD85B5CD
:1011F000846085BD08954F925F926F927F928F9227
:101200009F92AF92BF92CF92DF92EF92FF920F9395
:101210001F93CF93DF93CDB7DEB72A970FB6F8941D
:10122000DEBF0FBECDBF6B017C0109831A832B8308
:101230003C834D835E83033509F071C037C06A81FA
:101240007B818C819D81E12FF0E0EE0FFF1FE7583D
:10125000FF4FA080B180950140E050E00E947D0DDD
:10126000842F952F422E532E642E752E622F732FAE
:101270000E94450C6F83788789879A87A70196011A
:1012800060E070E08FE793E40E949D0B9B01AC014E
:101290006F81788589859A850E94980B882324F42C
:1012A00045284628472849F41F5F01C010E0153043
:1012B00030F201E010E080E002C0850181E0882387
:1012C00009F438C1C8010E941B086A817B818C81A6
:1012D0009D810E94450CA70196010E94FC0C6B01A8
:1012E0007C01B80180E090E00E94450C9B01AC01BC
:1012F000C701B6010E949D0B9B01AC0160E070E04C
:101300008FE793E40E942B0B0E940F0C62BF08B67C
:1013100000FEFDCF88B7816088BF81E010C1053431
:1013200009F071C037C06A817B818C819D81E12F7A
:10133000F0E0EE0FFF1FE559FF4FA080B18095014F
:1013400040E050E00E947D0D842F952F422E532EB9
:10135000642E752E622F732F0E94450C6F83788741
:1013600089879A87A701960160E070E08FE793E490
:101370000E949D0B9B01AC016F81788589859A85C0
:101380000E94980B882324F445284628472849F4CE
:101390001F5F01C010E0173030F201E010E080E084
:1013A00002C0850181E0882309F4C6C0C8010E94FB
:1013B0009F086A817B818C819D810E94450CA701D9
:1013C00096010E94FC0C6B017C01B80180E090E06A
:1013D0000E94450C9B01AC01C701B6010E949D0B08
:1013E0009B01AC0160E070E08FE793E40E942B0B5F
:1013F0000E940F0C64BD08B606FEFDCF88B780645E
:1014000088BF81E09CC00F34E9F180E098C06A8118
:101410007B818C819D81E12FF0E0EE0FFF1FE7586B
:10142000FF4FA080B180950140E050E00E947D0D0B
:1014300029013A01B90180E090E00E94450C6F83D8
:10144000788789879A87A701960160E070E080E835
:1014500097E40E949D0B9B01AC016F817885898583
:101460009A850E94980B88235CF4C301B2010E9404
:10147000450C20E030E0A9010E94F70C18164CF052
:101480001F5F01C010E0153010F201E010E080E0B5
:1014900002C0850181E0882309F450C0C8010E9480
:1014A0005D086A817B818C819D810E94450CA7012A
:1014B00096010E94FC0C2B013C01B80180E090E0F9
:1014C0000E94450C4B015C019B01AC01C301B201C0
:1014D0000E949D0B9B01AC0160E070E080E897E406
:1014E0000E942B0B0E94160C7DBD6A817B818C8132
:1014F0009D810E94450CA70196010E94FC0CA5014C
:1015000094010E949D0B9B01AC0160E070E080E8BB
:1015100097E40E942B0B0E94160C21E0672B09F424
:1015200020E02CBD08B602FEFDCF88B7846088BFDE
:1015300081E005C080E003C080E001C080E02A9621
:101540000FB6F894DEBF0FBECDBFDF91CF911F91D4
:101550000F91FF90EF90DF90CF90BF90AF909F9052
:101560008F907F906F905F904F9008951F920F9291
:101570000FB60F9211242F933F934F935F936F9366
:101580007F938F939F93AF93BF93EF93FF93E091DC
:10159000B500F091B6000995FF91EF91BF91AF9121
:1015A0009F918F917F916F915F914F913F912F917B
:1015B0000F900FBE0F901F9018951F920F920FB6AD
:1015C0000F9211242F933F934F935F936F937F93C9
:1015D0008F939F93AF93BF93EF93FF93E091B900E5
:1015E000F091BA000995FF91EF91BF91AF919F9152
:1015F0008F917F916F915F914F913F912F910F90BC
:101600000FBE0F901F9018951F920F920FB60F925A
:1016100011242F933F934F935F936F937F938F93F7
:101620009F93AF93BF93EF93FF93E091B700F09137
:10163000B8000995FF91EF91BF91AF919F918F9164
:101640007F916F915F914F913F912F910F900FBEBE
:101650000F901F9018955058BB27AA270E94430B44
:101660000C94BD0C0E94AF0C38F00E94B60C20F018
:1016700039F49F3F19F426F40C94AC0C0EF4E09569
:10168000E7FB0C94A60CE92F0E94CE0C58F3BA1776
:10169000620773078407950720F079F4A6F50C9488
:1016A000F00C0EF4E0950B2EBA2FA02D0B01B90112
:1016B00090010C01CA01A0011124FF27591B99F0C8
:1016C000593F50F4503E68F11A16F040A22F232FD4
:1016D000342F4427585FF3CF469537952795A79524
:1016E000F0405395C9F77EF41F16BA0B620B730BCB
:1016F000840BBAF09150A1F0FF0FBB1F661F771F3C
:10170000881FC2F70EC0BA0F621F731F841F48F4F0
:10171000879577956795B795F7959E3F08F0B0CF79
:101720009395880F08F09927EE0F97958795089560
:101730000E94820C08F481E008950E94B10B0C9481
:10174000BD0C0E94B60C58F00E94AF0C40F029F47A
:101750005F3F29F00C94A60C51110C94F10C0C94E1
:10176000AC0C0E94CE0C68F39923B1F3552391F38E
:10177000951B550BBB27AA2762177307840738F000
:101780009F5F5F4F220F331F441FAA1FA9F335D05D
:101790000E2E3AF0E0E832D091505040E695001C11
:1017A000CAF72BD0FE2F29D0660F771F881FBB1FCB
:1017B000261737074807AB07B0E809F0BB0B802DA9
:1017C000BF01FF2793585F4F3AF09E3F510578F0D5
:1017D0000C94A60C0C94F10C5F3FE4F3983ED4F308
:1017E000869577956795B795F7959F5FC9F7880FA9
:1017F000911D9695879597F90895E1E0660F771FFB
:10180000881FBB1F621773078407BA0720F0621B8B
:10181000730B840BBA0BEE1F88F7E09508950E94B6
:10182000160C6894B1110C94F10C08950E94D60C1A
:1018300088F09F5798F0B92F9927B751B0F0E1F091
:10184000660F771F881F991F1AF0BA95C9F714C041
:10185000B13091F00E94F00CB1E008950C94F00CBE
:10186000672F782F8827B85F39F0B93FCCF386957A
:1018700077956795B395D9F73EF4909580957095D7
:1018800061957F4F8F4F9F4F0895E89409C097FB54
:101890003EF490958095709561957F4F8F4F9F4F47
:1018A0009923A9F0F92F96E9BB279395F69587958B
:1018B00077956795B795F111F8CFFAF4BB0F11F44E
:1018C00060FF1BC06F5F7F4F8F4F9F4F16C08823F5
:1018D00011F096E911C0772321F09EE8872F762F2B
:1018E00005C0662371F096E8862F70E060E02AF06C
:1018F0009A95660F771F881FDAF7880F9695879558
:1019000097F90895990F0008550FAA0BE0E8FEEF2C
:1019100016161706E807F907C0F012161306E407B3
:10192000F50798F0621B730B840B950B39F40A26AC
:1019300061F0232B242B252B21F408950A2609F48A
:10194000A140A6958FEF811D811D089597F99F678E
:1019500080E870E060E008959FEF80EC0895002437
:101960000A941616170618060906089500240A9404
:1019700012161306140605060895092E0394000C8A
:1019800011F4882352F0BB0F40F4BF2B11F460FF19
:1019900004C06F5F7F4F8F4F9F4F089557FD905842
:1019A000440F551F59F05F3F71F04795880F97FB23
:1019B000991F61F09F3F79F08795089512161306DD
:1019C0001406551FF2CF4695F1DF08C0161617060C
:1019D0001806991FF1CF8695710561050894089541
:1019E000E894BB2766277727CB0197F908950E94D3
:1019F000820C08F48FEF08950E940F0D0C94BD0C1B
:101A00000E94AF0C38F00E94B60C20F0952311F024
:101A10000C94A60C0C94AC0C11240C94F10C0E94A8
:101A2000CE0C70F3959FC1F3950F50E0551F629F48
:101A3000F001729FBB27F00DB11D639FAA27F00D27
:101A4000B11DAA1F649F6627B00DA11D661F829F4E
:101A50002227B00DA11D621F739FB00DA11D621F33
:101A6000839FA00D611D221F749F3327A00D611D50
:101A7000231F849F600D211D822F762F6A2F112432
:101A80009F5750409AF0F1F088234AF0EE0FFF1F65
:101A9000BB1F661F771F881F91505040A9F79E3FBC
:101AA000510580F00C94A60C0C94F10C5F3FE4F30C
:101AB000983ED4F3869577956795B795F795E79512
:101AC0009F5FC1F7FE2B880F911D9695879597F91B
:101AD000089597FB072E16F4009407D077FD09D0E0
:101AE0000E949F0D07FC05D03EF4909581959F4F75
:101AF0000895709561957F4F0895A1E21A2EAA1B53
:101B0000BB1BFD010DC0AA1FBB1FEE1FFF1FA217AD
:101B1000B307E407F50720F0A21BB30BE40BF50BAA
:101B2000661F771F881F991F1A9469F76095709533
:101B3000809590959B01AC01BD01CF010895AA1B32
:101B4000BB1B51E107C0AA1FBB1FA617B70710F0A8
:101B5000A61BB70B881F991F5A95A9F780959095DA
:0A1B6000BC01CD010895F894FFCFF9
:101B6A0000010002005340420F0002010008002059
:101B7A00004000800000010004010008004000004D
:101B8A00010004446573697265642054656D7000D0
:0C1B9A004E6F742056616C6964210000DD
:00000001FF
